:020000040800F2
:100000000008002061020008B1230008A9230008AD
:10001000AD230008690300085D31000800000000FE
:10002000000000000000000000000000B9230008EC
:100030006D03000800000000B5230008BD23000880
:100040007B0200087B0200087B0200087B0200089C
:100050007B0200087B0200087B0200087B0200088C
:100060007B0200087B0200087B0200087B0200087C
:100070007B0200087B0200087B0200087B0200086C
:100080007B0200087B0200087B0200087B0200085C
:100090007B0200087B0200087B0200087B0200084C
:1000A0007B0200087B0200087B0200087B0200083C
:1000B0007B0200087B0200087B0200087B0200082C
:1000C0007B0200087B0200087B0200087B0200081C
:1000D0007B020008513100087B0200087B02000807
:1000E0007B0200087B0200087B0200087B020008FC
:1000F0007B0200087B0200087B0200087B020008EC
:100100007B02000800000000000000007B020008E5
:100110007B0200087B0200087B0200087B020008CB
:100120007B0200087B0200087B0200087B020008BB
:100130007B0200087B0200080000000000000000B5
:100140007B0200087B0200087B0200080000000020
:10015000000000000000000000000000000000009F
:100160007B0200087B0200087B0200087B0200087B
:100170007B0200087B0200087B0200087B0200086B
:100180007B0200087B020008000000000000000065
:100190007B02000800F002F800F052F814A696E87E
:1001A000000CB244B344DA4501D100F049F8BAE892
:1001B0000F000FA696E83000A5EB040504EB060738
:1001C000AAEB0704A7F101074FEA15154FEA34140B
:1001D000A4F10104AC4201D300F032F813F0010F96
:1001E00018BFFB1A43F0010300F001F8DBE71847E2
:1001F0009C380000BC380000103A24BF78C878C191
:10020000FAD8520724BF30C830C144BF04680C601C
:1002100070470000704700000023002400250026DE
:10022000103A28BF78C1FBD8520728BF30C148BF59
:100230000B6070471FB503F0F7FB1FBD10B510BD75
:1002400000F058F81146FFF7F5FF02F089FF00F0C3
:1002500076F803B4FFF7F2FF03BC00F07DF800006E
:100260000948804709480047FEE7FEE7FEE7FEE74A
:10027000FEE7FEE7FEE7FEE7FEE7FEE70448054986
:10028000054A064B70470000C1230008950100088D
:1002900000020020000800200004002000040020CC
:1002A0004FF0000200B5134694469646203922BF0F
:1002B000A0E80C50A0E80C50B1F12001BFF4F7AF5A
:1002C000090728BFA0E80C5048BF0CC05DF804EB3C
:1002D000890028BF40F8042B08BF704748BF20F8AA
:1002E000022B11F0804F18BF00F8012B70477047A8
:1002F00070477047754600F02BF8AE46050069461A
:10030000534620F00700854618B020B5FFF7B6FF2A
:10031000BDE820404FF000064FF000074FF0000806
:100320004FF0000BAC46ACE8C009ACE8C009ACE843
:10033000C009ACE8C00921F007018D46704710B52F
:100340000446AFF300802046BDE81040FFF781BFB0
:10035000004870471000002001491820ABBEFEE79E
:100360002600020070470000FEE700007047000012
:10037000002804BF0120704790F82110022917D1EE
:100380000168D0E90FC30A6822F00E020A600A6809
:1003900022F001020A60012101FA03F2CCF80420E4
:1003A00080F821100021002280F8202008467047A4
:1003B000042181630121002280F820200846704733
:1003C00090F8211002291DD180B50268D0F834E0E0
:1003D000D0E90FC31168BEF1000F21F00E011160CA
:1003E000116821F0010111604FF0010101FA03F1E0
:1003F000CCF804104FF48071018418BFF04700203E
:1004000080BD00BF0421816301207047B0B5044660
:1004100000F0F6F8054640F20000C2F20000007855
:10042000611C18BF044400BF00F0EAF8401BA04262
:10043000FAD3B0BD2DE9F04F83B00E68002E00F066
:10044000CF8000F1200241F6000C009200F1384705
:10045000C4F6000C07224FEAB725604508BF062204
:10046000062D38BF4FEAB722002500274FF00008BD
:1004700001920AE00E6808F1010836FA08F207F165
:10048000020705F1040500F0AB80012202FA08FE24
:1004900016EA0E09EED0D1F804C003220CF0030BCB
:1004A000ABF1010602FA07F4012E6FEA040A11D833
:1004B0008468CE6804EA0A04BE4034438460446819
:1004C00024EA0E06CCF3001404FA08F4264346602E
:1004D00006E000BFBBF1030F02D14FF0030B21E098
:1004E000C6688C6806EA0A06BC402643BBF1020FC8
:1004F000C66017D16FF00302009B02EA580605F0B0
:100500001C020F2453F806C004FA02FE0C692CEA00
:100510000E0C04FA02F242EA0C029A51D1F804C01D
:100520000CF0030B02680BFA07F302EA0A021A4303
:100530001CF4403F02609DD041F21803C4F2020354
:100540001A6840F2004E42F001021A601A68C4F2C2
:10055000010E02F001020292029A28F003024FF605
:10056000084C7244CFF6FF7C52F80C3005F00C06B4
:100570000F24B440A343019C04FA06F6334342F827
:100580000C30DEF808204B6842EA090640F20C4CB9
:10059000DC0258BF22EA0906CEF80860C4F2010C5A
:1005A000DCF800209C0242EA090658BF22EA09064C
:1005B000CCF80060DEF804209C0342EA090658BF2C
:1005C00022EA0906CEF80460DEF80020DB0342EAE6
:1005D000090658BF22EA0906CEF800604AE700BFC4
:1005E00003B0BDE8F08F00000069084018BF01208B
:1005F000704700001823002A08BF2823C150704705
:1006000040F2F810C2F200000068704740F20000AB
:1006100040F2F811C2F20000C2F2000100780A684C
:10062000104408607047000080B542F20000C4F238
:100630000200016841F010010160032000F086F81B
:10064000002000F005F800F027F8002080BD000031
:1006500070B540F20006C2F2000640F2080132789E
:10066000C2F200014FF47A730968B3FBF2F2044658
:10067000B1FBF2F1084600F0BFFC0F2C4FF0010572
:1006800008D838B94FF0FF3021460022002500F08D
:1006900031F87460284670BD82B041F21800C4F28F
:1006A0000200016841F001010160016801F00101EF
:1006B00001910199416841F080514160406800F02A
:1006C000805000900098072002B000F03FB8000072
:1006D000002848BF704700F01F01012202FA01F113
:1006E0001C2202EAD0004EF20012CEF2000281502B
:1006F0007047000010B54EF60C5CCEF2000CDCF832
:100700000030C3F3022E8EF00704042C28BF04240B
:10071000BEF103034FF0FF3E0EFA04F438BF00238E
:10072000A14399400EFA03F39A43114300F00F02DC
:1007300000F160430901043A03F564436244002870
:1007400048BF02F10C03197010BD00004EF60C51A9
:10075000CEF200010A684FF6FF031A4060F30A2246
:1007600042F0806040F0FD70086070472DE9F04174
:1007700082B00446807841F23006C007C4F2020617
:1007800056D056F8140C5FEAC0080BD456F8140C77
:1007900040F0805046F8140C56F8140C00F08050CD
:1007A0000190019847F20007C4F200073868C005BD
:1007B00012D4386840F480703860FFF721FF054696
:1007C0003868C00508D4FFF71BFF401B6428F7D921
:1007D000032002B0BDE8F08156F8100C10F4407010
:1007E00015D0616801F44071884210D056F8100CA1
:1007F00040F24042C4F24222012320F440711360CF
:100800000023C007136046F8101C40F0F98056F82A
:10081000100C616820F440700843B8F1000F46F8EE
:10082000100C05D456F8140C20F0805046F8140C27
:100830002068C10738D181073ED4410744D48106DE
:100840004AD4810350D4410658D441035ED40107F1
:1008500064D4C1066AD4810570D4010679D4C10577
:1008600000F18280C10400F18A80810400F190804F
:10087000C10200F19680810200F19C80410200F1EA
:10088000A280010200F1A880C10100F1AE808001C8
:1008900005D53068216D20F4004008433060002009
:1008A00002B0BDE8F08100BF3168A26821F0030109
:1008B000114331608107C0D53168E26821F44031CD
:1008C000114331604107BAD53168226921F44021D2
:1008D000114331608106B4D53168E26921F010011D
:1008E000114331608103AED556F82C1C626D21F4A2
:1008F0008001114346F82C1C4106A6D53168226AB6
:1009000021F02001114331604103A0D53168626AB2
:1009100021F040011143316001079AD531686269C5
:1009200021F4401111433160C10694D53168A269A8
:1009300021F440011143316081058ED556F82C1CFD
:10094000226B21F40001114346F82C1C01067FF5AF
:1009500086AF56F8041CA26A21F4F871114346F8D8
:10096000041CC1057FF57EAF56F8041CE26A21F431
:100970007851114346F8041CC1047FF576AF316805
:10098000626B21F480711143316081047FF570AF97
:100990003168226C21F4007111433160C1027FF58E
:1009A0006AAF3168A26B21F080711143316081021E
:1009B0007FF564AF3168E26B21F000711143316063
:1009C00041027FF55EAF3168626C21F480611143B2
:1009D000316001027FF558AF3168A26C21F40061EB
:1009E00011433160C1017FF552AF3168E26C21F4EF
:1009F00000511143316080013FF54BAF4FE700BF1D
:100A0000FFF7FEFD054641F2883700BF56F8100C8F
:100A100080073FF5FCAEFFF7F3FD401BB8424FF0F7
:100A20000300F3D93CE70000002804BF0120704711
:100A30002DE9F04381B042F20008C4F202080446F6
:100A4000D8F800000D4600F0070088420CD2D8F814
:100A5000000020F007002843C8F80000D8F8000084
:100A600000F00700A8427AD1206841F2040981070A
:100A7000C4F2020907D5D9F80010A26821F0F001EC
:100A80001143C9F80010C00760D1D8F8000000F089
:100A90000700A8420CD9D8F8000020F0070028432E
:100AA000C8F80000D8F8000000F00700A84256D1AE
:100AB0002068410707D5D9F80010E26821F4E06109
:100AC0001143C9F80010000708D5D9F800002169C2
:100AD00020F4605040EAC100C9F80000D9F80010C5
:100AE00001F00C00082841F20020C0F27A0012D177
:100AF00043F65A22C1F38341C0F60002515CD9F893
:100B0000282043F66A2302F00F02C0F600039A5C25
:100B1000B0FBF2F04843D9F8001043F64222C1F38B
:100B20000311C0F60002515C40F2080220FA01F104
:100B300040F20400C2F200000068C2F2000211603C
:100B4000FFF786FD002001B0BDE8F083606859F82A
:100B5000041C022808D0012826D1890306D40120CC
:100B600001B0BDE8F08300BF8901F8D5D9F80010C5
:100B700021F003010843C9F80000FFF741FD0646D4
:100B800041F28837D9F80000616800F00C00B0EB42
:100B9000810F3FF47AAFFFF733FD801BB842F1D9E4
:100BA000032001B0BDE8F0838907D8D5DEE7000057
:100BB00040F2080041F20401C2F20000C4F2020156
:100BC0000068096843F65222C1F30221C0F6000210
:100BD000515CC8407047000040F2080041F2040137
:100BE000C2F20000C4F202010068096843F6522212
:100BF000C1F3C221C0F60002515CC840704700003A
:100C000041F20401C4F202010A6802F00C00082853
:100C100041F20020C0F27A0018BF704743F65A2311
:100C2000C2F38342C0F600039A5C896A43F66A23E2
:100C300001F00F01C0F60003595CB0FBF1F0504326
:100C400070470000002804BF012070472DE9F041E3
:100C500082B00446007841F20006C007C4F20206E2
:100C60000CD0706800F00C00042840F083803068DD
:100C7000800303D56068002800F022812078800777
:100C80001ED5706810F00C0F0CD0706800F00C00CE
:100C9000082840F08B80706800F4C030B0F5004F39
:100CA00040F084803068800703D5E068012840F078
:100CB00007813068216920F0F80040EAC100306007
:100CC0002078000714D4207840072BD4A569002D84
:100CD00000F0F180706800F00C00082840F0A4805B
:100CE000012D40F0D780012002B0BDE8F08100BFA7
:100CF0006069002800F080800020C4F242200121B9
:100D0000C0F88014FFF77CFC054600BF706A8007BE
:100D1000D9D4FFF775FC401B0228F7D9032002B095
:100D2000BDE8F081F0695FEAC00808D4F06940F0DE
:100D30008050F061F06900F080500190019847F216
:100D40000007C4F200073868C00549D4386840F489
:100D500080703860FFF754FC054600BF3868C00556
:100D60003ED4FFF74DFC401B6428F7D9032002B0A6
:100D7000BDE8F081706800F00C00082806D17068AA
:100D800000F4C030B0F5803F3FF471AF6168306867
:100D9000002900F0E380B1F5A02F00F0D780B1F575
:100DA000803F40F0F18040F48030F3E0E0680028BC
:100DB00040F20000C4F242205AD001210160FFF746
:100DC0001FFC0546306880073FF573AFFFF718FC3E
:100DD000401B0228F6D9032002B0BDE8F08100BF15
:100DE000A168306A002977D005296DD0012940F02B
:100DF0008B8040F001008DE00020C4F242200021F1
:100E0000C0F88014FFF7FCFB054600BF706A80073E
:100E10007FF559AFFFF7F4FB401B0228F6D90320FA
:100E200002B0BDE8F08100BF0027C4F242270020D5
:100E30003866FFF7E5FB022D05460DD130688001CD
:100E400040F1BA80FFF7DCFB401B02284FF00300A3
:100E5000F4D902B0BDE8F081306880012BD5FFF7EE
:100E6000CFFB401B02284FF00300F5D9F1E700BF8C
:100E700000210160FFF7C4FB054600BF3068800712
:100E80007FF51EAFFFF7BCFB401B02284FF00300AD
:100E9000F4D9DEE77168F06AE26901F4C033934285
:100EA0000ED1226A01F47011914209D1616A00F0F9
:100EB0000F00884204D1002002B0BDE8F08100BFDD
:100EC000012002B0BDE8F08140F004003062306AD9
:100ED00040F001001EE000BF20F001003062306AE7
:100EE00020F004003062FFF78BFB054641F28837A3
:100EF000306A800720D5FFF783FB401BB8424FF0D4
:100F00000300F5D9A5E700BF20F001003062306A88
:100F100020F004003062FFF773FB054641F288378A
:100F2000306A800708D4FFF76BFB401BB842F7D943
:100F3000032002B0BDE8F081B8F1000F3FF5C6AE66
:100F4000F06920F08050F061C0E600BF40F48020DE
:100F50003060306840F480301CE000BF20F4803006
:100F60003060306820F480203060FFF749FB054690
:100F7000306880037FF582AEFFF742FB401B642898
:100F80004FF00300F4D964E720F48030306030681B
:100F900020F480203060FFF733FB05463068800383
:100FA0003FF56CAEFFF72CFB401B6428F6D90320FD
:100FB00002B0BDE8F08100BFF06A626A20F00F0065
:100FC0001043D4E90713F062706820F476101843D8
:100FD0000843706001203866FFF712FB044600BF2B
:100FE000306880013FF567AFFFF70AFB001B02285E
:100FF0004FF00300F4D92CE7411E0020B0EB116F35
:101000001CBF012070474EF21002CEF20002516068
:101010004EF62351CEF20001F0230B7007219060B1
:101020001160704790F83C20012A4FF0020258D01E
:10103000B0B580F83D20026842F6004C54689368D1
:10104000C4F2010C45F2000E6245C4F2010E18BF55
:10105000724529D14D6824F470042C430D6824F0A6
:1010600070042C4342F6FF35C4F20105AA425460D5
:101070000ADD43F6FF74C4F20104A2421CDC62459F
:1010800022D043F200451BE0B2F1804F1CD040F269
:101090000045C4F20005AA4216D040F60005C4F28D
:1010A0000005AA4210D014E043F20045C4F2010545
:1010B000AA42CFD0D2E700BF724505D044F2000566
:1010C000C4F20105AA4204D1896823F080031943C0
:1010D00091600121002280F83D1080F83C20BDE89D
:1010E000B040104670470000002804BF0120704740
:1010F00010B5044690F83D0028B9002084F83C0063
:10110000204600F023F8022084F83D002068211DCD
:1011100001F060F9012084F8480084F83E0084F86A
:101120003F0084F8400084F8410084F8420084F8CD
:10113000430084F8440084F8450084F8460084F8AD
:10114000470084F83D00002010BD000083B0006817
:10115000B0F1804F2ED040F20041C4F2000188422D
:1011600018D042F60041C4F2010188421FD141F279
:101170001C00C4F2020050F8041C41F4006140F865
:10118000041C50F8040C00F400600290029803B0B4
:10119000704700BF41F21C00C4F20200016841F038
:1011A00002010160006800F002000090009803B0A6
:1011B000704700BF41F21C00C4F20200016841F018
:1011C00001010160006800F001000190019803B086
:1011D0007047000090F83D1001291DD1022180F8D0
:1011E0003D10016842F6FF30C4F20100814215DD76
:1011F00043F6FF70C4F2010081421FDC42F600405A
:10120000C4F20100814225D043F20040C4F2010043
:1012100081421FD02BE000BF01207047B1F1804F09
:1012200018D040F20040C4F20000814212D040F6D3
:101230000000C4F2000081420CD018E045F200002A
:10124000C4F20100814205D044F20000C4F2010062
:1012500081420CD188680722C0F201020240062AAE
:101260004FF00000D9D0B2F5803F08BF7047086842
:1012700040F00100086000207047000090F83C201A
:10128000012A4FF002026CD080B580F83D20D0F8E2
:1012900000C08822DCF80830CFF6FE721A40CCF885
:1012A00008200B684F2B29DC1F2B45DD202B46D057
:1012B000302B44D0402B40F0AF80D1F804E0C96817
:1012C000DCF82030DCF8202022F00102CCF82020CD
:1012D000DCF8182022F0F00242EA011123F00A02A1
:1012E00042EA0E02CCF81810CCF82020DCF80810E6
:1012F00041F0470121F0300128E000BF6F2B33DDC2
:10130000B3F5005F74D0B3F5805F21D0702B40F04F
:101310008380D1E901E3C968DCF8082043EA0E03C1
:1013200022F47F4243EA01211143CCF80810DCF893
:10133000081041F0770109E00BB1102B6CD1DCF8FB
:10134000081021F07001194341F00701CCF8081092
:101350000022012180F83D10002180F83C10BDE8FA
:1013600080401046704700BF502B21D0602B53D1D6
:10137000D1F804E0C968DCF82030DCF8202022F045
:101380001002CCF82020DCF8182022F4704242EA47
:10139000013123F0A00242EA0E12CCF81810CCF86A
:1013A0002020DCF8081041F0670121F01001CDE7A2
:1013B000D1F804E0C968DCF82030DCF8202022F005
:1013C0000102CCF82020DCF8182022F0F00242EADA
:1013D000011123F00A0242EA0E02CCF81810CCF8F0
:1013E0002020DCF8081041F0570121F02001ADE782
:1013F000D1E901E3C968DCF8082043EA0E0322F4CE
:101400007F4243EA01211143CCF80810DCF80810B0
:1014100041F480419AE700BF01229AE7F0B587B016
:1014200000680025B0F1804F0695CDE9045503957D
:10143000029501D007B0F0BD41F21400C4F20200E1
:10144000016802AC41F4003101600168022601F438
:101450000031019101990168012741F48021016067
:101460000068214600F48020019001984FF09040E0
:10147000CDE90266CDE904550697FEF7DBFF4FF490
:101480008060CDE9020640F20040C4F6000021462B
:10149000CDE904550697FEF7CDFF07B0F0BD00007B
:1014A00090F83C30012B04BF022070474FEAB20293
:1014B000052A00F2CF812DE9F041DFE812F00700A4
:1014C00029019300ED005500810100BF03681D6AEA
:1014D0001A6AA3F1804622F001021A621A46D3F872
:1014E000048052F818CF8F68A6F59636D1F800E040
:1014F00025F002054FEAB626092E45EA07050BD866
:101500000127B74040F2E52427421FBFCC6825F0F1
:101510000C0524F004042543092E0CD80124B44002
:1015200040F2E52634421FBFD1E9054628F4407752
:101530003C4344EA06084FF68C74CFF6FE740CEA7E
:10154000040747EA0E07C3F804809F614F680969E2
:101550005F631D629F6947F008079F619F6927F0DD
:1015600004079F616AE100BF0368D3F820C01A6ACC
:10157000A3F1804722F480321A621A46A7F5963703
:101580005D6852F8548FD1F800E08E684FEAB727B3
:10159000092F0AD80124BC4040F2E5273C421EBF77
:1015A0004C6925F4803545EA04252CF4003747EAD8
:1015B00006474FF68C76CFF6FE76033606EA080627
:1015C00046EA0E065D605E654E6809699E651F62AB
:1015D0005F6D47F008075F655F6D27F004075F6583
:1015E0002CE100BF036842F600461D6A1A6AC4F285
:1015F000010622F480721A621A46D3F804C052F827
:101600001CEFB3428E68D1F8008025F4007545EADE
:1016100006250BD045F20006C4F20106B34205D000
:1016200043F20046C4F20106B34207D1CE6840F24D
:10163000FF47360225F44065BE433543A3F180469B
:10164000A6F596364FEAB626092E0DD8012707FAD9
:1016500006F640F2E5273E421FBFD1E905672CF4AC
:101660004054374344EA071C4FF68C74CFF6FE749F
:101670000EEA040747EA0807C3F804C0DF614F68B1
:101680000969DF631D62DF6947F00807DF61DF6911
:1016900027F00407DF61D1E00368D3F820C01A6A9D
:1016A000A3F1804722F480521A621A46A7F59637B2
:1016B0005C6852F81C8FD1F800E08E684FEAB727BB
:1016C000092F0AD80125BD4040F2E5273D421EBF43
:1016D0004D6924F4804444EA85142CF4005747EA09
:1016E000063748F6FF46CFF6FF6606EA080646EAE2
:1016F0000E265C60DE614E6809691E641F62DF6948
:1017000047F40067DF61DF6927F48067DF6194E0F9
:10171000036842F600461D6A1A6AC4F2010622F006
:1017200010021A621A465C6852F818CFB3428E68EB
:10173000D1F800E025F0200545EA06150BD045F26A
:101740000006C4F20106B34205D043F20046C4F2DB
:101750000106B34207D1CE686FF0400725F0C005FF
:1017600007EA06163543A3F18046A6F596364FEAFA
:10177000B626092E0DD8012707FA06F640F2E5270E
:101780003E421FBFD1E9056724F440643E4344EA6A
:10179000860448F6FF46CFF6FF660CEA060747EADE
:1017A0000E275C609F614F6809699F631D629F6996
:1017B00047F400679F619F6927F480679F613CE061
:1017C0000368D3F820C01A6AA3F1804722F480127C
:1017D0001A621A46A7F596375D6852F8548FD1F809
:1017E00000E08E684FEAB727092F0AD80124BC40D1
:1017F00040F2E5273C421EBF4C6925F4802545EAAE
:1018000084252CF4001747EA065748F6FF46CFF622
:10181000FF6606F5407606EA080646EA0E265D6093
:101820005E654E680969DE651F625F6D47F400679B
:101830005F655F6D27F480675F6509021368194370
:1018400011600021BDE8F041002280F83C200846EC
:10185000704700BF0121002280F83C2008467047F5
:10186000002804BF0120704710B5044690F83D00E1
:1018700028B9002084F83C00204600F023F802201C
:1018800084F83D002068211D00F0A4FD012084F8AB
:10189000480084F83E0084F83F0084F8400084F853
:1018A000410084F8420084F8430084F8440084F83E
:1018B000450084F8460084F8470084F83D00002085
:1018C00010BD00007047000080B5D9B10B1F4FEA72
:1018D000B30E43224FF03F0CBEF1040F38BF0CEBA8
:1018E000B302825C012A1CBF012080BDBEF1030F40
:1018F0001ED8DFE80EF00319111500BF022280F890
:101900003F2018E090F83E20012A1CBF012080BD36
:10191000022280F83E200EE0022280F841200AE0F8
:10192000022280F8422006E0022280F8402002E0F5
:10193000022280F84320026801F01F010120136A8F
:1019400000FA01F18B431362136A0B43A2F1804149
:10195000A1F596314FEAB121072913622ED88840AC
:1019600010F0E50F2AD0506C42F6FF31C4F20101AD
:1019700040F400408A4250643EDD43F6FF70C4F2FA
:10198000010082420CDC42F60040C4F201008242B7
:1019900041D043F20040C4F2010082423BD047E014
:1019A00045F20000C4F20100824234D044F200004B
:1019B000C4F2010082422ED03AE000BF42F6FF306E
:1019C000C4F20100824217DD43F6FF70C4F2010049
:1019D0008242D8DD44F20000C4F2010082421AD0F3
:1019E00045F20000C4F20100824221D1506C40F463
:1019F000004050640FE000BFB2F1804F0BD040F2C6
:101A00000040C4F20000824205D040F60000C4F25B
:101A1000000082420CD190680721C0F20101014010
:101A200006294FF0000008D0B1F5803F08BF80BD07
:101A3000106840F001001060002080BD7047000079
:101A4000704700007047000070B5016840F62F0332
:101A5000CA690E688C681340202B06F0200E07D14F
:101A6000BEF1000F04D0816E41B3BDE8704008475D
:101A700040F60F031A4209D040F22013C0F200438F
:101A800004F0010C334013EB0C0325D1036ED50693
:101A900016D5012B14D116F0100311D010220A62B2
:101AA0008968490630D4B0F85810B0F85A20B0F818
:101AB0005A30002B18BF914240F0348270BD00BFF5
:101AC000D30213D514F4800310D04FF480120A62AD
:101AD000BDE87040FFF7B4BFD30718BF16F480739A
:101AE00040F0D080930700F1D780E0E0110640F18C
:101AF000DF8116F0800100F0DB81C16E0029DDD0AE
:101B0000BDE87040084700BF416F0A68526893B251
:101B1000002BD3D0B0F85860B342CFD2A0F85A20EF
:101B20008969202900F0A180016851E8001F02683E
:101B300021F4807142E80013DBB1016851E8001F15
:101B4000026821F4807142E8001393B1016851E802
:101B5000001F026821F4807142E800134BB1016854
:101B600051E8001F026821F4807142E80013002B45
:101B7000DAD1016851E8021F026821F0010142E850
:101B80000213C3B3016851E8021F026821F001018A
:101B900042E802137BB3016851E8021F026821F09A
:101BA000010142E8021333B3016851E8021F0268E1
:101BB00021F0010142E80213002BDAD11BE000BF43
:101BC000016851E8021F026821F0400142E8021357
:101BD000DBB1016851E8021F026821F0400142E8D0
:101BE000021393B1016851E8021F026821F040011D
:101BF00042E802134BB1016851E8021F026821F06C
:101C0000400142E80213002BDAD12021C0F88010F5
:101C100000210166016851E8001F026821F01001EF
:101C200042E80013DBB1016851E8001F026821F0AF
:101C3000100142E8001393B1016851E8001F0268E7
:101C400021F0100142E800134BB1016851E8001F78
:101C5000026821F0100142E80013002BDAD1416F35
:101C600004460846FEF784FB204602214166B0F890
:101C70005810B0F85A20891A89B2BDE87040FFF7B1
:101C8000DDBE00BF01230B62D0F8843043F00103B6
:101C9000C0F8843093070AD5BCF1000F07D00223A7
:101CA0000B62D0F8843043F00403C0F8843053074B
:101CB0000AD5BCF1000F07D004230B62D0F88430A2
:101CC00043F00203C0F8843013070AD55CEA0E0320
:101CD00007D008230B62D0F8843043F00803C0F823
:101CE000843013050BD516F0806308D04FF40063E1
:101CF0000B62D0F8843043F02003C0F88430D0F871
:101D00008430002B3FF4DAAE920608D5BEF1000F06
:101D100005D0826E1AB10446904721682046D0F85B
:101D20008420896802F0280201F04001891807D157
:101D30000446FFF787FE0020C4F8840070BD00BF92
:101D4000016851E8001F026821F4907142E8001315
:101D5000BBB3016851E8001F026821F4907142E8AA
:101D6000001373B3016851E8001F026821F49071F9
:101D700042E800132BB3016851E8001F026821F408
:101D8000907142E80013002BDAD11AE0016851E8A3
:101D9000021F026821F0010142E80213DBB1016871
:101DA00051E8021F026821F0010142E8021393B1D9
:101DB000016851E8021F026821F0010142E80213A4
:101DC0004BB1016851E8021F026821F0010142E8AD
:101DD0000213002BDAD1016E012924D1016851E8E8
:101DE000001F026821F0100142E80013DBB1016816
:101DF00051E8001F026821F0100142E8001393B17E
:101E0000016851E8001F026821F0100142E8001348
:101E10004BB1016851E8001F026821F0100142E84F
:101E20000013002BDAD12021C0F8801000210166B8
:101E3000026881669168490670D500BF016851E863
:101E4000021F026821F0400142E80213DBB1016881
:101E500051E8021F026821F0400142E8021393B1E9
:101E6000016851E8021F026821F0400142E80213B4
:101E70004BB1016851E8021F026821F0400142E8BD
:101E80000213002BDAD1416F002947D042F27D7254
:101E9000C0F60002044608464A63FEF791FA00289D
:101EA0003FF40CAE606F416BBDE87040084700BF67
:101EB00051067FF503AE16F0400108BF70BD00BFAC
:101EC000016851E8001F026821F0400142E8001358
:101ED000DBB1016851E8001F026821F0400142E8CF
:101EE000001393B1016851E8001F026821F040011E
:101EF00042E800134BB1016851E8001F026821F06D
:101F0000400142E80013002BDAD12021C1670021F3
:101F1000C166BDE8704000F045BA00BFBDE8704042
:101F2000FFF790BD891A00BF026852E8002F0368CE
:101F300022F4907243E80026BEB3026852E8002FF4
:101F4000036822F4907243E8002676B3026852E8F0
:101F5000002F036822F4907243E800262EB3026833
:101F600052E8002F036822F4907243E80026002E06
:101F7000DAD11AE0026852E8022F036822F0010267
:101F800043E80226DEB1026852E8022F036822F01D
:101F9000010243E8022696B1026852E8022F036864
:101FA00022F0010243E802264EB1026852E8022FF5
:101FB000036822F0010243E80226002EDAD1202233
:101FC000C0F8802000220266826600BF026852E8E4
:101FD000002F036822F0100243E80026DEB10268F9
:101FE00052E8002F036822F0100243E8002696B161
:101FF000026852E8002F036822F0100243E800262E
:102000004EB1026852E8002F036822F0100243E844
:102010000026002EDAD1022289B24266BDE8704065
:10202000FFF70CBD10B5C0B10446C06F28B9002041
:1020300084F87800204600F025F82420E067206826
:10204000616A026822F00102026011B1204600F0CC
:102050006DFA204600F044FD10B1012010BD00BF14
:102060002168486820F490404860886820F02A0081
:102070008860086840F0010220460A60BDE8104010
:1020800000F0C8BA80B586B0006843F60002C4F21A
:10209000010200219042CDE90411CDE90211019124
:1020A00002D006B080BD00BF41F21400C4F20200AD
:1020B000426842F480424260426802F480420092E8
:1020C000009A026842F400220260006800F40020D6
:1020D00000900098302001900220CDE902010320F9
:1020E00004900720059040F60000C4F6000001A906
:1020F000FEF7A0F9252000210022FEF7FBFA25209B
:10210000FEF7E6FA06B080BDD0F88030202B07D16C
:1021100000294FF0010318BF002A05D11846704767
:1021200002231846704700BF80B50023036603688A
:102130005B681B0204D400F0B5FD002080BD00BF29
:10214000036853E800CFD0F800E04CF080634EE81D
:10215000003CBCF1000FEED0036853E800CFD0F88C
:1021600000E04CF080634EE8003CBCF1000FE2D090
:10217000036853E800CFD0F800E04CF080634EE8ED
:10218000003CBCF1000FD6D0036853E800CFD0F874
:1021900000E04CF080634EE8003CBCF1000FCFD172
:1021A000C9E70000006843F60001C4F2010188425B
:1021B00018BF704770B540F27005C2F20005AC1C44
:1021C00040F27010C2F20000214601226423012671
:1021D00000F01AF8A878A0F16101162906D80922A2
:1021E00006FA01F1C0F24402114202D1202801D1C5
:1021F0000020287040F27010C2F200002146012237
:10220000BDE87040FFF780BF2DE9F04381B0044680
:10221000C06F202808D100294FF0010018BF002A04
:1022200006D101B0BDE8F083022001B0BDE8F08323
:102230000020C4F8840021201D460E46E0671746A2
:10224000FEF7DEF9A4F85070A4F85270A168814638
:10225000B1F5805F02D12069002865D037460020A3
:10226000B4F852202168002A66D06A1C27D0002DBD
:1022700052D08046C86900060AD4FEF7C1F9A0EB27
:102280000900A84200F2828021680868F2E700BFD6
:1022900017B117F8010B04E038F8020B00276FF3B1
:1022A0005F200885B4F852000138A4F85200B4F851
:1022B00052000028DED13FE0CA69120609D4CA697B
:1022C000120606D4CA6912065CBFCA695FEA0262D6
:1022D000F2D51FB117F8012B05E000BF30F8022B33
:1022E00000276FF35F220A85B4F85220013AA4F860
:1022F0005220B4F85220002AE1D11DE030F8022B20
:1023000000276FF35F220A85B4F85220013AA4F83F
:102310005220B4F852207AB1CA69120634D5002F7F
:10232000ECD017F8012BEEE700273046B4F8522026
:102330002168002A7FF499AFC86940061ED41DB3F6
:10234000681C14D1C869400626D4C869400623D445
:10235000C869400620D4C86940064FF00000F1D596
:102360000DE000BF20680168C069400614D4FEF784
:1023700047F9A0EB0900A842F4D907E0002020218A
:10238000E16701B0BDE8F083FEF73AF903202021B0
:10239000E16701B0BDE8F08300202021E16701B0D2
:1023A000BDE8F08370470000FEE70000FEE7000094
:1023B000FEE700007047000070470000FEF726B9F6
:1023C0004EF68850CEF20000016841F470010160C1
:1023D0007047000042F6FF330268C4F201039842DE
:1023E0002EDCB0F1804F3DD040F20043C4F2000338
:1023F000984237D040F60003C4F20003984231D02F
:1024000043F2FF33C4F20103984235DD44F2FF3357
:10241000C4F2010398424DDD44F20043C4F20103CB
:10242000984253D045F20003C4F2010398424DD0C4
:1024300044F60003C4F20103984247D04AE000BFCB
:1024400042F60043C4F2010398420BD045F2000368
:10245000C4F20103984205D043F20043C4F20103E1
:102460009842CDD14B6822F070021A4343F2FF33F9
:10247000C4F201039842C9DC40F2FF73C4F20003C6
:10248000984209DCB0F1804F20D040F20043C4F202
:10249000000398421AD01DE040F60003C4F2000386
:1024A000984213D042F60043C4F2010398420DD083
:1024B00010E000BF43F20043C4F20103984205D08C
:1024C00044F20003C4F20103984203D1CB6822F422
:1024D00040721A4380B54B6922F0800E8A6843EA45
:1024E0000E03D1F800C00360C262A0F18042A2F5E1
:1024F00096324FEAB222092AC0F828C0BDE88040CF
:1025000008D8012303FA02F240F2E5231A421CBF65
:1025100009690163012141610169C90708BF704769
:10252000016921F00101016170470000416A0A0759
:102530000CD4CA0715D18A071ED44A0727D4CA0665
:1025400030D48A0639D44A0642D457E00268D0F81B
:1025500034C0536823F4004343EA0C035360CA07B2
:10256000E9D00268D0F828C0536823F4003343EA66
:102570000C0353608A07E0D50268D0F82CC053687A
:1025800023F4803343EA0C0353604A07D7D502682B
:10259000D0F830C0536823F4802343EA0C0353601F
:1025A000CA06CED50268D0F838C0936823F48053A9
:1025B00043EA0C0393608A06C5D50268D0F83CC094
:1025C000936823F4005343EA0C0393604A0615D53D
:1025D000D0F800C0036CDCF80420B3F5801F22F4AF
:1025E000801242EA0302CCF8042007D1DCF8042070
:1025F000436C22F4C0021A43CCF80420090658BFE9
:1026000070470168806C4A6822F4002210434860D9
:1026100070470000B0B582B004460020C4F88400C2
:10262000FDF7EEFF216805460A68120737D56FF0FF
:102630007E4C20464FF4001100222B46CDF800C0FE
:1026400000F0E6FB50B300BF206850E8000F21689F
:1026500020F0800041E80002DAB1206850E8000F65
:10266000216820F0800041E8000292B1206850E823
:10267000000F216820F0800041E800024AB1206884
:1026800050E8000F216820F0800041E80002002A95
:10269000DAD1032020217C226AE000BF216808688B
:1026A00040075DD56FF07E4C20464FF4800100223C
:1026B0002B46CDF800C000F0ABFB002850D000BF87
:1026C000206850E8000F216820F4907041E8000273
:1026D000BAB3206850E8000F216820F4907041E8F8
:1026E000000272B3206850E8000F216820F4907057
:1026F00041E800022AB3206850E8000F216820F466
:10270000907041E80002002ADAD11AE0206850E80F
:10271000020F216820F0010041E80202DAB12068CE
:1027200050E8020F216820F0010041E8020292B156
:10273000206850E8020F216820F0010041E8020201
:102740004AB1206850E8020F216820F0010041E8FA
:102750000202002ADAD103202021802208E000BFF3
:102760002020E067C4F88000002164220020216658
:10277000A150002184F8781002B0B0BD406A002159
:10278000A0F85A10A0F85210FFF75CB9B0F85C201E
:102790000168D0F88030222B40F0C680898C436DD0
:1027A000114023F8021B4365B0F85A100139A0F814
:1027B0005A10B0F85A10002918BF7047016851E844
:1027C000001F026821F4907142E80013E3B1016830
:1027D00051E8001F026821F4907142E800139BB198
:1027E000016851E8001F026821F4907142E800136B
:1027F00053B1016851E8001F026821F4907142E86A
:102800000013002BDAD100BF016851E8021F0268F3
:1028100021F0010142E80213DBB1016851E8021F17
:10282000026821F0010142E8021393B1016851E806
:10283000021F026821F0010142E802134BB1016856
:1028400051E8021F026821F0010142E80213002B47
:10285000DAD12021C0F8801000218166416601682C
:102860004968090236D4016E012918BFFFF79ABCE6
:1028700000210166016851E8001F026821F0100183
:1028800042E80013DBB1016851E8001F026821F043
:10289000100142E8001393B1016851E8001F02687B
:1028A00021F0100142E800134BB1016851E8001F0C
:1028B000026821F0100142E80013002BDAD1016810
:1028C000CA69D20644BF10220A62B0F85810FFF756
:1028D000B5B800BF016851E8001F026821F08061AF
:1028E00042E80013002BBED0016851E8001F0268C7
:1028F00021F0806142E80013002BB4D0016851E858
:10290000001F026821F0806142E80013002BAAD06A
:10291000016851E8001F026821F0806142E800135D
:10292000002BD7D19FE700BF886940F0080088617D
:1029300070470000B0F85C100268D0F88030222B9D
:1029400040F0C880928C436D11401970416D013187
:102950004165B0F85A100139A0F85A10B0F85A1071
:10296000002918BF704700BF016851E8001F0268C6
:1029700021F4907142E80013E3B1016851E8001FAF
:10298000026821F4907142E800139BB1016851E89C
:10299000001F026821F4907142E8001353B10168EE
:1029A00051E8001F026821F4907142E80013002BE7
:1029B000DAD100BF016851E8021F026821F001016D
:1029C00042E80213DBB1016851E8021F026821F0FE
:1029D000010142E8021393B1016851E8021F026845
:1029E00021F0010142E802134BB1016851E8021FD6
:1029F000026821F0010142E80213002BDAD1202104
:102A0000C0F88010002181664166016849680902AA
:102A100036D4016E012918BFFFF7C4BB002101663F
:102A2000016851E8001F026821F0100142E800131C
:102A3000DBB1016851E8001F026821F0100142E893
:102A4000001393B1016851E8001F026821F01001E2
:102A500042E800134BB1016851E8001F026821F001
:102A6000100142E80013002BDAD10168CA69D206CE
:102A700044BF10220A62B0F85810FEF7DFBF00BF53
:102A8000016851E8001F026821F0806142E80013EC
:102A9000002BBED0016851E8001F026821F0806160
:102AA00042E80013002BB4D0016851E8001F02680F
:102AB00021F0806142E80013002BAAD0016851E8A0
:102AC000001F026821F0806142E80013002BD7D17B
:102AD0009FE700BF906940F00800906170470000D8
:102AE000B0B505460168806805F10C041CCC18439C
:102AF00040EA0403D5F81CC00C6846F6F310CEF685
:102B0000FF702040184340EA0C000860486820F439
:102B1000405010434860A8692A6A8B68104323F428
:102B200030621043886044F6FF30C4F200008142F6
:102B30004FF0100218DD44F60040C4F2000081425C
:102B400026D045F20000C4F20000814228D043F6AE
:102B50000000C4F20100814238D141F23000C4F2D9
:102B6000020001684BA22DE044F20040C4F20000D4
:102B700081421DD044F60000C4F20000814225D1FC
:102B800041F23000C4F202000068810C16E000BF80
:102B900041F23000C4F202000068010D0EE000BFF7
:102BA00041F23000C4F202000068810D06E000BF6F
:102BB00041F23000C4F202000068010C43F67C22AE
:102BC000C0F6000201F0030052F8202041F200207C
:102BD000BCF5004FC0F27A000ED1082A4FF0010177
:102BE00053D8DFE802F005192B5221525252290026
:102BF000FDF7DEFF10BB44E0082A4FF0010144D886
:102C0000DFE802F0060E324316434343300000BFB4
:102C1000FDF7CEFF40BB34E0FDF7DEFF70B930E0DA
:102C2000FDF7DAFF00BB2CE0FDF7EAFF30B928E042
:102C3000FDF7E6FFC0B924E04FF4004069684A0898
:102C400002EB4000B0FBF1F04FF6EF72A0F1100183
:102C5000914219D84FF6F0710140C0F34200084488
:102C60000DE000BF4FF4004069684FF6EF7200EBD3
:102C70005100B0FBF1F0A0F11001914204D8296895
:102C8000C860002101E000BF012100220846AA66B9
:102C9000EA66B0BD0100000004000000080000006A
:102CA000020000004165A0F85820A0F85A20816871
:102CB0000022826671B1B1F1805F07D0B1F5805F0B
:102CC0000ED1016951B940F2FF110AE0016919B151
:102CD0003F2106E0016909B17F2102E0FF2100E008
:102CE0000021A0F85C100021C0F884102221C0F857
:102CF000801000BF016851E8021F026841F0010125
:102D000042E80213DBB1016851E8021F026841F09A
:102D1000010142E8021393B1016851E8021F026801
:102D200041F0010142E802134BB1016851E8021F72
:102D3000026841F0010142E80213002BDAD18268F7
:102D40000169B2F5805F07D1A1B342F63511C0F633
:102D50000001816606E000BF42F63512C0F60002AF
:102D6000826669B3016851E8001F026841F49071FE
:102D700042E80013002B48D0016851E8001F0268A8
:102D800041F4907142E80013002B3ED0016851E8F5
:102D9000001F026841F4907142E80013ABB3016870
:102DA00051E8001F026841F4907142E80013002BC3
:102DB000D8D12AE042F28D71C0F60001816600BFD1
:102DC000016851E8001F026841F0200142E8001349
:102DD000DBB1016851E8001F026841F0200142E8C0
:102DE000001393B1016851E8001F026841F020010F
:102DF00042E800134BB1016851E8001F026841F03E
:102E0000200142E80013002BDAD1002070470000B7
:102E10002DE9F041804600681546C2690E46114012
:102E2000891BB1FA81F14909A94223D1069C2CB32F
:102E3000611C29D1C1693140891BB1FA81F149096D
:102E4000A94217D1C1693140891BB1FA81F1490901
:102E5000A9420FD1C1693140891BB1FA81F14909F9
:102E6000A94207D1C1693140891BB1FA81F14909F1
:102E7000A942DFD00020BDE8F08100BFFDF7C0FB14
:102E80000320BDE8F08100BF1F4607E0C069304065
:102E9000801BB0FA80F04009A842EBD1FDF7B0FBEF
:102EA000C01BA04200F2B080D8F8000001684907BA
:102EB000ECD5402EEAD0802EE8D0C169090700F198
:102EC000A780C1690905E1D54FF400610162D8F816
:102ED000000050E8000FD8F8001020F4907041E88E
:102EE0000002002A43D0D8F8000050E8000FD8F8BC
:102EF000001020F4907041E80002C2B3D8F800003E
:102F000050E8000FD8F8001020F4907041E800025B
:102F10006AB3D8F8000050E8000FD8F8001020F489
:102F2000907041E80002002AD1D120E0D8F80000DA
:102F300050E8020FD8F8001020F0010041E802022A
:102F40000AB3D8F8000050E8020FD8F8001020F0BB
:102F5000010041E80202B2B1D8F8000050E8020FC7
:102F6000D8F8001020F0010041E802025AB1D8F868
:102F7000000050E8020FD8F8001020F0010041E8EE
:102F80000202002AD2D1D8F8600001282CD1D8F84A
:102F9000000050E8000FD8F8001020F0100041E8C1
:102FA00000020AB3D8F8000050E8000FD8F800106B
:102FB00020F0100041E80002B2B1D8F8000050E85B
:102FC000000FD8F8001020F0100041E800025AB1BC
:102FD000D8F8000050E8000FD8F8001020F01000DA
:102FE00041E80002002AD2D120200021C8F8800048
:102FF000C8F86010C8F86810C8F88400032088F882
:103000007810BDE8F08100BF0320BDE8F08100BF6B
:1030100008210162D8F8000050E8000FD8F800102D
:1030200020F4907041E80002002A44D0D8F8000053
:1030300050E8000FD8F8001020F4907041E800022A
:10304000CAB3D8F8000050E8000FD8F8001020F4F8
:10305000907041E8000272B3D8F8000050E8000F09
:10306000D8F8001020F4907041E80002002AD1D175
:1030700021E000BFD8F8000050E8020FD8F8001097
:1030800020F0010041E802020AB3D8F8000050E83D
:10309000020FD8F8001020F0010041E80202B2B19E
:1030A000D8F8000050E8020FD8F8001020F0010016
:1030B00041E802025AB1D8F8000050E8020FD8F8EF
:1030C000001020F0010041E80202002AD2D1D8F815
:1030D000600001282CD1D8F8000050E8000FD8F883
:1030E000001020F0100041E800020AB3D8F80000F8
:1030F00050E8000FD8F8001020F0100041E800025E
:10310000B2B1D8F8000050E8000FD8F8001020F055
:10311000100041E800025AB1D8F8000050E8000F52
:10312000D8F8001020F0100041E80002002AD2D1A7
:103130002020C8F8800000200821C8F86000C8F8E6
:103140006800C8F8841088F878000120BDE8F08194
:1031500040F27010C2F20000FEF776BCFEE70000FD
:10316000A6B0FDF761FA01A800240430542121948F
:10317000CDE91F44CDE91D44FDF792F801201F90D1
:10318000102020904FF4004023904FF4E0100225CF
:10319000CDE924041CA81C952295FDF753FD28B108
:1031A000EFF3108072B600BFFEE700BF0F20CDE93D
:1031B00017054FF48060CDE91A0417A8022119946D
:1031C000FDF732FC20B1EFF3108072B6FEE700BFCE
:1031D00041F20100C0F230000190002701A80397DE
:1031E000CDE90E771097FDF7C1FA28B1EFF3108003
:1031F00072B600BFFEE700BF41F214000597CDE9AB
:103200000377CDE90177C4F20200016840F2004B78
:1032100041F400310160016840F2004801F40031DE
:103220001C911C990168002241F400210160016891
:10323000C4F6000B01F400211C911C990168C4F232
:10324000000841F48021016000684FF40C7100F423
:1032500080201C901C984FF090404FF40C75FDF7A7
:10326000C9F95846312100223124FDF7C3F90195EF
:1032700001AD01264FF090402946CDE90267049741
:10328000FDF7D8F84FF4A070CDE901074FF090405A
:1032900029460397FDF7CEF801A8D0C05846294625
:1032A0000497FDF7C7F840F2701008F59A31C2F2A2
:1032B00000000C234FF4165280E88600C0E9037723
:1032C000C0E90537C0E907774762FEF7ABFE28B1D2
:1032D000EFF3108072B600BFFEE700BF40F224108B
:1032E0000021C2F200004FF08042472340F2CF7726
:1032F0001F91CDE91D111891CDE90611CDE90411F9
:10330000C0E90023C0E9021701618161FDF7ECFE0D
:1033100020B1EFF3108072B6FEE700BF4FF480508B
:103320001C9040F22410C2F200001CA9FDF7A6FF79
:1033300020B1EFF3108072B6FEE700BF40F2241018
:10334000C2F20000FEF78CFA20B1EFF3108072B6E3
:10335000FEE700BF40F224100025C2F2000017A9CA
:1033600017951995FDF75EFE20B1EFF3108072B648
:10337000FEE700BF6020CDE9010540F22410C2F253
:10338000000001A9042203950595FEF789F828B1EC
:10339000EFF3108072B600BFFEE700BF40F2E730E7
:1033A000029040F22410C2F2000001A90822FEF7A8
:1033B00077F828B1EFF3108072B600BFFEE700BFC8
:1033C00040F22419C2F200094846FEF727F840F2FD
:1033D000D800002108F59432C2F20000472340F2E1
:1033E000CF770491CDE90211C0E90023C0E90217AB
:1033F000C0E904118161FDF777FE18B1EFF3108089
:1034000072B6FEE74FF48050019040F2D800C2F24D
:10341000000001A9FDF732FF20B1EFF3108072B672
:10342000FEE700BF40F2D8000025C2F200001CA950
:10343000CDE91C551E95FDF7F5FD18B1EFF3108091
:1034400072B6FEE740F2700AC2F2000A504640F837
:103450001C8F482140F2CF720495CDE902551D958D
:10346000C0E90115C0E903258561FDF73DFE18B1EE
:10347000EFF3108072B6FEE74FF480500AF11C069D
:10348000019001A93046FDF7F9FE18B1EFF3108065
:1034900072B6FEE700201C901E901CA93046FDF776
:1034A000C1FD18B1EFF3108072B6FEE740F270185C
:1034B0000AF10207C2F20008404639460122FEF72F
:1034C00023FE48460821FEF7FFF948460421FEF78F
:1034D000FBF9584620210022FDF78CF858461021B0
:1034E0000022FDF787F84FF0904010210022FDF7F1
:1034F00081F8584601210022FDF77CF840F2D800FF
:10350000C2F20000FDF766FE3046FDF763FE4FF0A5
:1035100090404FF400710022FDF76CF84FF090409E
:1035200020210022FDF766F8404639460122FEF7C9
:10353000EBFD1EE000255846202100228AF80050AD
:10354000FDF758F8584610210022FDF753F84FF0C8
:10355000904010210022FDF74DF85846012100222D
:10356000FDF748F8D9F80000C56385636420FCF7CF
:103570004DFF00F045F89AF801000028DAD19AF8DA
:103580000000613816281BD80026012201250027DB
:10359000DFE800F01216160C16161616161616167A
:1035A000161616161616101616161A0001260022E2
:1035B0000AE000BF012600220025012704E000BF29
:1035C000002200260025002758462021FDF712F88A
:1035D000584610213246FDF70DF84FF0904010216B
:1035E0002A46FDF707F8584601213A46FDF702F84A
:1035F0009AF80050002D18BF4FF47A75B2E700001A
:103600002DE9F0474FF090404FF400710122FCF794
:10361000F1FF40F27004C2F20004E069002141624F
:10362000416A092908D8416A092905D8416A092946
:1036300002D8416A0A29F3D34FF090404FF4007149
:103640000022FCF7D7FFFCF7DBFFA0614FF09040B2
:103650004FF48071FCF7C8FF30B9A06900F10A058A
:10366000FCF7CEFF8542F1D8E069406AA060FCF724
:10367000C7FFA0614FF090404FF48071FCF7B4FF9A
:1036800030B1A06900F13205FCF7BAFF8542F1D8EC
:10369000E069A168406AE060401A00F0B4F89FED6C
:1036A0003E0B58EC10AB5246434600F0BFF89FED7E
:1036B0003C0B56EC107B3A46334600F0B7F800F06E
:1036C00073F8A0804FF0904020210122FCF792FF78
:1036D00040F2D809C2F20009D9F800000021416285
:1036E000416A092908D8416A092905D8416A092986
:1036F00002D8416A0A29F3D34FF0904020210022DA
:10370000FCF778FFFCF77CFFA06100BF4FF0904012
:103710004021FCF769FF30B9A06900F10A05FCF708
:103720006FFF8542F2D8D9F80000406A2061FCF7AB
:1037300067FFA0614FF090404021FCF755FF30B18A
:10374000A06900F13205FCF75BFF8542F2D8D9F899
:103750000000406A21696061401A00F054F8524646
:10376000434600F063F83A46334600F05FF800F055
:103770001BF8A18800220A294FF00001E08038BF21
:1037800001210A2838BF012241EA02006070BDE829
:10379000F08700BF00BF00BF9CC420B07268A13F8B
:1037A000000000000000E03F4FEA41034FEA53539E
:1037B000A3F58063D3F11E03C8BFD3F1210C0CDD48
:1037C0004FF0004242EAC12242EA505232FA03FC70
:1037D0008CEAE17CACEBE1707047102BC4BF002099
:1037E000704703F5787CBCF1FF3F04D06FF00042D6
:1037F00082EA2100704770B500F0C2F84992248037
:1038000000207047F2E7B0FA80F310FA03F10AD013
:10381000C3F11D0303F580634FEA03524FEA4150A1
:1038200002EBD12170474FF00000704770B5DFF810
:1038300048C11CEA111E1EBF1CEA13159EEA0C0F9C
:1038400095EA0C0F00F06F8081EA03044EEAD47E03
:10385000AE4421EA4C1123EA4C1341F4801143F4A5
:103860008013AEF17F7EA1FB024CA0FB03653619ED
:1038700055EB0C05A1FB034C4CF10003A0FB021C13
:1038800016EB0C06654153F10003094218BF46F0E0
:10389000010613F4007F0BD14FEA03314FEA0530E4
:1038A00041EA155140EA165034036FF003020AE072
:1038B0004FEAC3214FEAC52041EA555140EA56502C
:1038C000F4026FF0020202EB2E4201EB025585EA90
:1038D000CE710AD05FEA440C18BF24F0004450F1C6
:1038E000000041F1000120EAD47040F2FE7C624504
:1038F00000D270BDA84214BF4FF080444FF0404446
:10390000002E08BF0024BEF1806FA8BFA1F1C04106
:10391000BDE8704080F2828001F1C04101F00041B9
:103920004FF0000070470CEA13159EEA0C0F18BF09
:1039300095EA0C0F06D081EA030E4FF000000EF05E
:10394000004170BD00F01CF88900013E00F007B88E
:1039500000F009B84FEA430C5FEA5C5C08D081EAEA
:10396000030100F05BB84FEA410C5FEA5C5CF6D102
:1039700002494FF0000070470000FF070000F87F89
:103980000EF1020E2EF0030E5EF8046B364205D4E3
:10399000012A43EB030515F5001F12D8012841EB5E
:1039A000010C1CF5001F0CD80ED14FEAD17C0CEB9A
:1039B0004C0C0CF1020C15F5001F08BF4CEBD37C2E
:1039C00004E04FF0080C01E04FEAD37C0CEB4C050F
:1039D00026FA05F606F00706B6F1040C06D20EEB41
:1039E000860CBDE870404CF0010C6047DFE80CF03D
:1039F000090B02024FF00041A1F500214FF0000039
:103A000070BD19461046012851EB010418BFD4F5CA
:103A1000001484BF002001F0004170BD0808A0F52B
:103A200000114FEA31017047F1EE100A4FF6FF71B5
:103A3000C0F2C03120EA010040F04070E1EE100A0F
:103A400070470000000000000000010203040607A8
:103A50000809000000000102030402030405060730
:103A600008090A0B0C0D0E0F1010010203040506C5
:103A70000708090A0B0C0D0E0F10000000000000D3
:103A8000040000000800000002000000B03A000836
:103A90000000002010000000F8010008C03A0008F3
:103AA00010000020F00700001802000800000000CD
:103AB000010000001000000000127A000000000069
:040000050800019559
:00000001FF
